:030000000238576C
:03002B000236A8F2
:1030000000000027004F0077009E00C600EE01156B
:10301000013D0165018D01B501DD0205022D02555D
:10302000027D02A502CE02F6031E0346036F03973C
:1030300003C003E8041104390462048B04B304DC04
:103040000505052E0556057F05A805D105FA0623B9
:10305000064C0675069E06C706F007190742076B61
:10306000079507BE07E70810083A0863088C08B6FA
:1030700008DF09080932095B098409AE09D70A018A
:103080000A2A0A540A7D0AA70AD00AFA0B230B4D12
:103090000B760BA00BC90BF30C1C0C460C700C9997
:1030A0000CC30CEC0D160D3F0D690D920DBC0DE51A
:1030B0000E0F0E380E620E8B0EB50EDE0F080F319E
:1030C0000F5B0F840FAD0FD71000102A1053107C28
:1030D00010A610CF10F81121114B1174119D11C6BB
:1030E00011EF12191242126B129412BD12E6130F55
:1030F00013381361138A13B313DC1404142D1456FC
:10310000147F14A814D014F91522154A1573159CB0
:1031100015C415ED1615163E1667168F16B716E070
:10312000170817311759178117AA17D217FA18233A
:10313000184B1873189B18C318EC1914193C196410
:10314000198C19B419DC1A041A2D1A551A7D1AA5EE
:103150001ACD1AF51B1D1B451B6D1B941BBC1BE4D4
:103160001C0C1C341C5C1C841CAC1CD41CFC1D24BE
:103170001D4C1D741D9B1DC31DEB1E131E3B1E63AA
:103180001E8B1EB31EDB1F031F2B1F531F7B1FA392
:103190001FCA1FF2201A2042206A209220BA20E281
:1031A000210A2133215B218321AB21D321FB22235F
:1031B000224B2273229C22C422EC2314233C23653D
:1031C000238D23B523DD2406242E2456247F24A713
:1031D00024CF24F8252025492571259A25C225EBE1
:1031E0002613263C2664268D26B526DE2707272FA4
:1031F0002758278127A927D227FB2824284C287560
:10320000289E28C728F029182941296A299329BC12
:1032100029E52A0E2A372A602A892AB22ADB2B04BA
:103220002B2D2B562B7F2BA82BD12BFB2C242C4D5D
:103230002C762C9F2CC92CF22D1B2D442D6E2D97F6
:103240002DC02DE92E132E3C2E652E8F2EB82EE18B
:103250002F0B2F342F5E2F872FB12FDA3003302D15
:0E3260003056308030A930D330FC312631504A
:10326E002A2A2A2A4C4F4144494E472A2A2A2A2AD8
:10327E000054454D503A2020202020200043454C3C
:10328E0043495553202052454144494E470046413B
:10329E0052454E4845542052454144494E470041FF
:1032AE00424F525441424F525441424F52542000C9
:1032BE00C000788500D8FDD00022C000C00179285A
:1032CE007868D8FED9FADAF6D001D00022D294125C
:1032DE0032BEC29422A2E79283A2E69282A2E59225
:1032EE0081A2E492801232DB1232BEA2E39283A25A
:1032FE00E29282A2E19281A2E092801232DB22D28D
:10330E00930232E3C2930232E3C294C0027A2812CD
:10331E0032C8D00274331233127433123312743231
:10332E001233127428123312740C123312740112E7
:10333E003312C0027A021232C8D00222E49360061F
:10334E0012330DA380F62244404480023312C0E0B3
:10335E00E8C4540F443012330DE8540F4430123386
:10336E000DD0E022C0E0E854016004743180027494
:07337E003012330DD0E022F4
:10338500C0E0C000C001903000A850A951E4E9B4E4
:10339500000302339F9032008000A3A3D8FCE4937E
:0E33A500F552A3E493F553D001D000D0E022FE
:1033B300C0E0C0D0C000C001C002E4F53AF53BF55F
:1033C3003CF53DF53E7A20E533A2E779047830E613
:1033D30033F608D9FA7905783AE636D4F608D9F9F6
:1033E300DAE5D002D001D000D0D0D0E022C0E0C0D6
:1033F300D0C000C001C002E4F53AF53BF53CF53D11
:10340300F53E7A20E533A2E779047830E633F6080F
:10341300D9FA7905783AC0D0E6243320E70224D0DC
:1034230020E30224FDD0D033F608D9EADAD6D0025D
:10343300D001D000D0D0D0E022C0E0C0D0C000C0C6
:1034430001C0027A207905C3783EE613C0D030E785
:103453000224D030E30224FDF618D0D0D9EC79044D
:103463007833E613F618D9FADADBD002D001D000AC
:10347300D0D0D0E022C0E0C0D0E5302534F530E52F
:10348300313535F531E5323536F532E5333537F556
:1034930033D0D0D0E022C0E0C0D0C3E5309534F5BE
:1034A30030E5319535F531E5329536F532E533952D
:1034B30037F533D0D0D0E022C0E0C0D0C3E530959B
:1034C30034E5319535E5329536E53395379200D0BD
:1034D300D0D0E022C0E0C0D0C3E5349530E53595C7
:1034E30031E5369532E53795339200D0D0D0E022DE
:1034F300C0E0C0D0C200C3E53495307014E5359503
:1035030031700EE53695327008E53795337002D287
:1035130000D0D0D0E0221234F32000030234D722AB
:103523001234F32000030234BB22C0E0C0F0C0D049
:10353300C000C001C002C003E5308534F0A4F8A97F
:10354300F0E5318534F0A429F9E435F0FAE5308566
:1035530035F0A429F9E5F03AFAE433FBE532853492
:10356300F0A42AFAE5F03BFBE5318535F0A42AFA0D
:10357300E5F03BFBE5308536F0A42AFAE5F03BFBAA
:10358300E5338534F0A42BFBE5328535F0A42BFB22
:10359300E5318536F0A42BFBE5308537F0A42BFB12
:1035A3008B338A3289318830D003D002D001D000E6
:1035B300D0D0D0F0D0E022C0E0C0D0C000C001C065
:1035C30002C003C0047C20E4F8F9FAFBC3E53033FE
:1035D300F530E53133F531E53233F532E53333F5A3
:1035E30033E833F8E933F9EA33FAEB33FBC3E8950D
:1035F30034E99535EA9536EB95374013E89534F879
:10360300E99535F9EA9536FAEB9537FB433001DC5A
:10361300BBD004D003D002D001D000D0D0D0E02260
:1036230075AC0075AD0075B30075B40075B1007568
:10363300B2007A05123781438E1043878075985202
:1036430053C4DF53890F438920758DF7D28E438E80
:103653001043878075985253C4DF53890F438920E1
:10366300758DF7D28EC28C438E085389F04389013E
:1036730043B30253B4FD53E8F043E80775F6004340
:10368300F68043E10175500075C80075CDD775CC40
:103693007975C9A075CBD775CA79755500439B80D9
:1036A300D2CAD2AF22C2CFC0D0C0E00555C3E558BD
:1036B3009555B39290E555B464327555000557D2CC
:1036C30002E554B400030236EFC3E54394F0400629
:1036D30075540A0236EFE543C39432500C0559E59D
:1036E30059C3943C500675540A755900D0E0D0D0A4
:1036F3003250574D204578616D706C652020202035
:10370300200043686B2070696E2031353A50312EAA
:103713003020003099FDC299F59922E49360061296
:103723003716A380F622E4E544123716E4E5451282
:103733003716E4E546123716E4E547123716E4E593
:1037430038123716E4E53912371622303132333462
:10375300353637383941424344454648656C6C6FCA
:103763002C20576F726C64210D0A000D0A00C28C65
:10377300C28D758CBF758A28D28C308DFD2212378D
:1037830071DAFB22C0E0740114123357D0E0C08316
:10379300C082C0E090328B12334AD0E0D082D08313
:1037A300C0E0740714123355D0E0C000A83C1233B4
:1037B3005CD000C0E0740914123355D0E0C000A8F7
:1037C3003B12335CD000C0E0740A14123355D0E0CE
:1037D300C000A83B12335CD000C0E0740C14123359
:1037E30055D0E0C000A83A12335CD000C0E0740AA0
:1037F30014123355D0E0C0E0742E12330DD0E0C064
:10380300E0740714123355D0E0C0E0742012330D76
:10381300D0E0C0E0740F14123355D0E0C0E074DF81
:1038230012330DD0E0C0E0741014123355D0E0C051
:10383300E0744312330DD0E022C2EFD2EE30EFFD3D
:10384300E5C2540FF8E5C3C4C0E0540FF9D0E05407
:10385300F048F82275817F123623123317D201758F
:103863005400755700755A00755B00755C00C0E025
:10387300740114123357D0E0C083C082C0E0903289
:103883006E12334AD0E0D082D083C0E074011412A8
:103893003355D0E0C083C082C0E090327F12334AF8
:1038A300D0E0D082D0830238DC75300075310075EA
:1038B30032007533007DFF12383C753700753600D2
:1038C30089358834123478DDEE7534FF753500752B
:1038D30036007537001235BA2253E8F043E8001278
:1038E30038AC883F894053E8F043E8051238AC8888
:1038F3003089317532007533007534987535287504
:10390300360375370012352D853F348540357536BE
:10391300007537001235BA75346875352A75360463
:1039230075370012349985304C85314D85324E857B
:10393300334F7534E8753503753600753700123526
:10394300BA85305085315075500212338585523017
:103953008553317532007533008552388553398567
:1039630030448531458532468533471233B31237A8
:10397300878544308545318546328547337534E83C
:103983007535037536007537001235BA8530437ABD
:10399300FA1237817AFA1237811237290239A2E5EE
:1039A30054B40011755800C2012084063084FD759B
:1039B30054010238A9B401137558647557007496FD
:1039C300C3954350037554020238A9B4021B7558BA
:1039D3001430010AE55CC39557400B7554037557C2
:1039E30000D2010239CE0238A9B40312755864E536
:1039F3005AC201C3954350037554040238A9B40451
:103A03001B75581430010AE55BC39557400B755479
:103A130005755700D201023A010238A9B4051075A1
:103A23005800743CC3954340037554000238A9758C
:103A33005800C0E0740114123357D0E0C083C08231
:103A4300C0E09032AD12334AD0E0D082D083023A44
:013A53003240
:00000001FF
