:03000000023A843D
:03002B0002382E6A
:1030000000000027004F0077009E00C600EE01156B
:10301000013D0165018D01B501DD0205022D02555D
:10302000027D02A502CE02F6031E0346036F03973C
:1030300003C003E8041104390462048B04B304DC04
:103040000505052E0556057F05A805D105FA0623B9
:10305000064C0675069E06C706F007190742076B61
:10306000079507BE07E70810083A0863088C08B6FA
:1030700008DF09080932095B098409AE09D70A018A
:103080000A2A0A540A7D0AA70AD00AFA0B230B4D12
:103090000B760BA00BC90BF30C1C0C460C700C9997
:1030A0000CC30CEC0D160D3F0D690D920DBC0DE51A
:1030B0000E0F0E380E620E8B0EB50EDE0F080F319E
:1030C0000F5B0F840FAD0FD71000102A1053107C28
:1030D00010A610CF10F81121114B1174119D11C6BB
:1030E00011EF12191242126B129412BD12E6130F55
:1030F00013381361138A13B313DC1404142D1456FC
:10310000147F14A814D014F91522154A1573159CB0
:1031100015C415ED1615163E1667168F16B716E070
:10312000170817311759178117AA17D217FA18233A
:10313000184B1873189B18C318EC1914193C196410
:10314000198C19B419DC1A041A2D1A551A7D1AA5EE
:103150001ACD1AF51B1D1B451B6D1B941BBC1BE4D4
:103160001C0C1C341C5C1C841CAC1CD41CFC1D24BE
:103170001D4C1D741D9B1DC31DEB1E131E3B1E63AA
:103180001E8B1EB31EDB1F031F2B1F531F7B1FA392
:103190001FCA1FF2201A2042206A209220BA20E281
:1031A000210A2133215B218321AB21D321FB22235F
:1031B000224B2273229C22C422EC2314233C23653D
:1031C000238D23B523DD2406242E2456247F24A713
:1031D00024CF24F8252025492571259A25C225EBE1
:1031E0002613263C2664268D26B526DE2707272FA4
:1031F0002758278127A927D227FB2824284C287560
:10320000289E28C728F029182941296A299329BC12
:1032100029E52A0E2A372A602A892AB22ADB2B04BA
:103220002B2D2B562B7F2BA82BD12BFB2C242C4D5D
:103230002C762C9F2CC92CF22D1B2D442D6E2D97F6
:103240002DC02DE92E132E3C2E652E8F2EB82EE18B
:103250002F0B2F342F5E2F872FB12FDA3003302D15
:0E3260003056308030A930D330FC312631504A
:10326E002A2A2A2A4C4F4144494E472A2A2A2A2AD8
:10327E000054454D503A2020202020202020202090
:10328E0020004F56454E2054454D503A20202020C8
:10329E00202000464152454E484554205245414457
:1032AE00494E470041424F525441424F52544142BF
:1032BE004F5254200043757272656E7420537461C0
:0632CE0074653A202000A7
:1032D400C000788500D8FDD00022C000C001792844
:1032E4007868D8FED9FADAF6D001D00022D2941246
:1032F40032D4C29422A2E79283A2E69282A2E592F9
:1033040081A2E492801232F11232D4A2E39283A217
:10331400E29282A2E19281A2E092801232F122D260
:10332400930232F9C2930232F9C294C0027A28128B
:1033340032DED002743312332874331233287432D9
:103344001233287428123328740C1233287401128F
:103354003328C0027A021232DED00222E4936006DD
:10336400123323A380F62244404480023328C0E071
:10337400E8C4540F4430123323E8540F443012335A
:1033840023D0E022C0E0E854016004743180027468
:0733940030123323D0E022C8
:10339B00C0E0C000C001903000A852A953E4E9B4CA
:1033AB0000030233B59032008000A3A3D8FCE49352
:0E33BB00F555A3E493F554D001D000D0E022E4
:1033C900C0E0C0D0C000C001C002E4F53CF53DF545
:1033D9003EF53FF5407A20E533A2E779047830E6F7
:1033E90033F608D9FA7905783CE636D4F608D9F9DE
:1033F900DAE5D002D001D000D0D0D0E022C0E0C0C0
:10340900D0C000C001C002E4F53CF53DF53EF53FF2
:10341900F5407A20E533A2E779047830E633F608F7
:10342900D9FA7905783CC0D0E6243320E70224D0C4
:1034390020E30224FDD0D033F608D9EADAD6D00247
:10344900D001D000D0D0D0E022C0E0C0D0C000C0B0
:1034590001C0027A207905C37840E613C0D030E76D
:103469000224D030E30224FDF618D0D0D9EC790437
:103479007833E613F618D9FADADBD002D001D00096
:10348900D0D0D0E022C0E0C0D0E5302534F530E519
:10349900313535F531E5323536F532E5333537F540
:1034A90033D0D0D0E022C0E0C0D0C3E5309534F5A8
:1034B90030E5319535F531E5329536F532E5339517
:1034C90037F533D0D0D0E022C0E0C0D0C3E5309585
:1034D90034E5319535E5329536E53395379200D0A7
:1034E900D0D0E022C0E0C0D0C3E5349530E53595B1
:1034F90031E5369532E53795339200D0D0D0E022C8
:10350900C0E0C0D0C200C3E53495307014E53595EC
:1035190031700EE53695327008E53795337002D271
:1035290000D0D0D0E0221235092000030234ED2268
:103539001235092000030234D122C0E0C0F0C0D006
:10354900C000C001C002C003E5308534F0A4F8A969
:10355900F0E5318534F0A429F9E435F0FAE5308550
:1035690035F0A429F9E5F03AFAE433FBE53285347C
:10357900F0A42AFAE5F03BFBE5318535F0A42AFAF7
:10358900E5F03BFBE5308536F0A42AFAE5F03BFB94
:10359900E5338534F0A42BFBE5328535F0A42BFB0C
:1035A900E5318536F0A42BFBE5308537F0A42BFBFC
:1035B9008B338A3289318830D003D002D001D000D0
:1035C900D0D0D0F0D0E022C0E0C0D0C000C001C04F
:1035D90002C003C0047C20E4F8F9FAFBC3E53033E8
:1035E900F530E53133F531E53233F532E53333F58D
:1035F90033E833F8E933F9EA33FAEB33FBC3E895F7
:1036090034E99535EA9536EB95374013E89534F862
:10361900E99535F9EA9536FAEB9537FB433001DC44
:10362900BBD004D003D002D001D000D0D0D0E0224A
:1036390068657820696E2056616C5F746573743AA9
:103649000043555252454E542056414C20494E2074
:103659005800C0E0C0D0C000C001C002E4F563F565
:1036690064F565F5667A20E562A2E77904785FE694
:1036790033F608D9FA79057863E636D4F608D9F924
:10368900DAE5123699D002D001D000D0D0D0E022AC
:10369900C0E074011412336DD0E0C083C082C0E071
:1036A900903639123360D0E0D082D083C0E0740103
:1036B9001412336BD0E0C000A866123372D000C078
:1036C900E074031412336BD0E0C000A865123372A2
:1036D900D000C0E074051412336BD0E0C000A864B8
:1036E900123372D000C0E074071412336BD0E0C0FB
:1036F90000A863123372D00022C0E0C0D0C000C05D
:1037090001C002E4F563F564F565F5667A20E533F1
:10371900A2E779047830E633F608D9FA79057863AF
:10372900E636D4F608D9F9DAE5123740D002D001E5
:10373900D000D0D0D0E022C0E074011412336DD093
:10374900E0C083C082C0E090364A123360D0E0D036
:1037590082D083C0E074011412336BD0E0C000A89A
:1037690066123372D000C0E074031412336BD0E0D8
:10377900C000A865123372D000C0E074051412337A
:103789006BD0E0C000A864123372D000C0E07407A7
:103799001412336BD0E0C000A863123372D0002238
:1037A90075AC0075AD0075B30075B40075B10075E1
:1037B900B2007A05123913438E10438780759852E7
:1037C90053C4DF53890F438920758DF7D28E438EF9
:1037D9001043878075985253C4DF53890F4389205A
:1037E900758DF7D28EC28C438E085389F0438901B7
:1037F90043B30253B4FD53E8F043E80775F60043B9
:10380900F64043E10175520075C80075CDD775CCF6
:103819007975C9A075CBD775CA79755700439B804F
:10382900D2CAD2AF22C2CFC0D0C0E00557C3E55A31
:103839009557B39290E557B464327557000559D23C
:1038490002E556B40003023875C3E54594F0400615
:1038590075560A023875E545C39432500C055BE587
:103869005BC3943C500675560A755B00D0E0D0D016
:103879003250574D204578616D706C6520202020AD
:10388900200043686B2070696E2031353A50312E23
:103899003020003099FDC299F59922E4936006120F
:1038A900389CA380F622E4E54612389CE4E54712E9
:1038B900389CE4E54812389CE4E54912389CE4E573
:1038C9003812389CE4E53912389CE4E53A12389C00
:1038D900E4E53B12389C22303132333435363738FF
:1038E9003941424344454648656C6C6F2C20576FFB
:1038F900726C64210D0A000D0A00C28CC28D758C90
:10390900BF758A28D28C308DFD22123903DAFB2249
:10391900C0E074011412336DD0E0C083C082C0E0EE
:10392900903290123360D0E0D082D083C0E0740727
:103939001412336BD0E0C000A83E123372D000C01D
:10394900E074091412336BD0E0C000A83D12337241
:10395900D000C0E0740A1412336BD0E0C000A83D57
:10396900123372D000C0E0740C1412336BD0E0C073
:1039790000A83C123372D000C0E0740A1412336BF1
:10398900D0E0C0E0742E123323D0E0C0E0740714F5
:1039990012336BD0E0C0E07420123323D0E0C0E0D2
:1039A900740F1412336BD0E0C0E074DF123323D0EC
:1039B900E0C0E074101412336BD0E0C0E07443121D
:1039C9003323D0E022C0E0E53DB40003023A2DC024
:1039D900E074011412336BD0E0C083C082C0E09060
:1039E9003290123360D0E0D082D083C0E0740B14DF
:1039F90012336BD0E0C000A83D123372D000C0E092
:103A0900740B1412336BD0E0C0E07420123323D04E
:103A1900E0C0E0740D1412336BD0E0C000A83C1272
:103A29003372D000C0E0740C1412336BD0E0C0E0E4
:103A39007420123323D0E0C0E0740F1412336BD01A
:103A4900E0C0E074DF123323D0E0C0E07410141238
:103A5900336BD0E0C0E07443123323D0E0D0E022CE
:103A6900C2EFD2EE30EFFDE5C2540FF8E5C3C4C092
:103A7900E0540FF9D0E054F048F82275817F1237ED
:103A8900A912332DD201755600755900755C007560
:103A99005D00755E00C0E074011412336DD0E0C0A2
:103AA90083C082C0E090326E123360D0E0D082D001
:103AB90083C0E074011412336BD0E0C083C082C0AC
:103AC900E090327F123360D0E0D082D083023B098C
:103AD9007530007531007532007533007DFF123A7B
:103AE900697537007536008935883412348EDDEEF4
:103AF9007534FF7535007536007537001235D022DB
:103B090053E8F043E800123AD98841894253E8F072
:103B190043E805123AD98830893175320075330086
:103B29007534A07535F77536037537001235438539
:103B390041348542357536007537001235D07534F4
:103B49006875352A7536047537001234AF85304EDD
:103B590085314F85325085335153E8F043E80712D8
:103B69003AD9883089317532007533007534287532
:103B7900350A75360075370012354385413485425B
:103B8900357536007537001235D07534E87535034B
:103B990075360075370012354375341B7535047554
:103BA90036007537001235D07534E875350375362A
:103BB90000753700123543854E34854F35855036AB
:103BC90085513712348E853046853147853248858F
:103BD90033498546308547318548328549337534BF
:103BE900E87535037536007537001235D0853045CF
:103BF9001233C91239CE7AFA1239137AFA123913F1
:103C09001238AF023C0FE556C0E074011412336D4F
:103C1900D0E0C083C082C0E09032C3123360D0E0EC
:103C2900D082D083B40024755A00C0E0740E1412F7
:103C3900336DD0E0C0007800123372D000C2012089
:103C490084063084FD755601023AD6B40126755AA8
:103C590064C0E0740E1412336DD0E0C00078011214
:103C69003372D0007559007496C395455003755643
:103C790002023AD6B4022E755A14C0E0740E141218
:103C8900336DD0E0C0007802123372D00030010ADF
:103C9900E55EC39559400B755603755900D201026B
:103CA9003C7D023AD6B40325755A64C0E0740E14FB
:103CB90012336DD0E0C0007803123372D000E55C96
:103CC900C201C395455003755604023AD6B4042E71
:103CD900755A14C0E0740E1412336DD0E0C0007828
:103CE90004123372D00030010AE55DC39559400BC7
:103CF900755605755900D201023CD6023AD6B4056B
:103D090023755A00C0E0740E1412336DD0E0C00060
:103D19007804123372D000743CC39545400375563C
:103D290000023AD6755A00C0E074011412336DD0FE
:103D3900E0C083C082C0E09032B2123360D0E0D0DC
:063D490082D083023D2D33
:00000001FF
