:030000000205A551
:10002B000204272A2A2A2A4C4F4144494E472A2A9E
:10003B002A2A2A0054454D503A2020202020200007
:10004B0043454C43495553202052454144494E4763
:10005B0000464152454E4845542052454144494E75
:02006B0047004C
:10006D00C000788500D8FDD00022C000C0017928DD
:10007D007868D8FED9FADAF6D001D0002222D294CF
:10008D0012006DC29422A2E79283A2E69282A2E5AB
:10009D009281A2E4928012008B12006DA2E39283F2
:1000AD00A2E29282A2E19281A2E0928012008B22C2
:1000BD00D293020093C293020093C294C0027A2895
:1000CD00120077D00274331200C274331200C2745E
:1000DD00321200C274281200C2740C1200C27401D4
:1000ED001200C2C0027A02120077D00222E493609D
:1000FD00061200BDA380F622444044800200C2C017
:10010D00E0E8C4540F44301200BDE8540F443012DF
:10011D0000BDD0E022C0E0E85401600474318002DB
:08012D0074301200BDD0E02285
:10013500C0E0C0D0C000C001C002E4F539F53AF511
:100145003BF53CF53D7A20E533A2E779047830E6C6
:1001550033F608D9FA79057839E636D4F608D9F9A7
:10016500DAE5D002D001D000D0D0D0E022C0E0C086
:10017500D0C000C001C002E4F539F53AF53BF53CC5
:10018500F53D7A20E533A2E779047830E633F608C1
:10019500D9FA79057839C0D0E6243320E70224D08E
:1001A50020E30224FDD0D033F608D9EADAD6D0020E
:1001B500D001D000D0D0D0E022C0E0C0D0C000C077
:1001C50001C0027A207905C3783DE613C0D030E737
:1001D5000224D030E30224FDF618D0D0D9EC7904FE
:1001E5007833E613F618D9FADADBD002D001D0005D
:1001F500D0D0D0E022C0E0C0D0E5302534F530E5E0
:10020500313535F531E5323536F532E5333537F506
:1002150033D0D0D0E022C0E0C0D0C3E5309534F56E
:1002250030E5319535F531E5329536F532E53395DD
:1002350037F533D0D0D0E022C0E0C0D0C3E530954B
:1002450034E5319535E5329536E53395379200D06D
:10025500D0D0E022C0E0C0D0C3E5349530E5359577
:1002650031E5369532E53795339200D0D0D0E0228E
:10027500C0E0C0D0C200C3E53495307014E53595B3
:1002850031700EE53695327008E53795337002D238
:1002950000D0D0D0E02212027520000302025922BC
:1002A50012027520000302023D22C0E0C0F0C0D05A
:1002B500C000C001C002C003E5308534F0A4F8A930
:1002C500F0E5318534F0A429F9E435F0FAE5308517
:1002D50035F0A429F9E5F03AFAE433FBE532853443
:1002E500F0A42AFAE5F03BFBE5318535F0A42AFABE
:1002F500E5F03BFBE5308536F0A42AFAE5F03BFB5B
:10030500E5338534F0A42BFBE5328535F0A42BFBD2
:10031500E5318536F0A42BFBE5308537F0A42BFBC2
:100325008B338A3289318830D003D002D001D00096
:10033500D0D0D0F0D0E022C0E0C0D0C000C001C015
:1003450002C003C0047C20E4F8F9FAFBC3E53033AE
:10035500F530E53133F531E53233F532E53333F553
:1003650033E833F8E933F9EA33FAEB33FBC3E895BD
:1003750034E99535EA9536EB95374013E89534F829
:10038500E99535F9EA9536FAEB9537FB433001DC0B
:10039500BBD004D003D002D001D000D0D0D0E02211
:1003A50075AC0075AD0075B30075B40075B1007519
:1003B500B2007A051204CF438E1043878075985298
:1003C50053C4DF53890F438920758DF7D28E438E31
:1003D5001043878075985253C4DF53890F43892092
:1003E500758DF7D28EC28C438E085389F0438901EF
:1003F50043B30253B4FD53E8F043E80775F60043F1
:10040500F68043E10175C80075CDD775CC7975C9FE
:10041500A075CBD775CA79754800439B80D2CAD2DF
:10042500AF22C2CFC0D0C0E00548C3E54C9548B364
:100435009290E548B46407754800054AD202D0E0B9
:10044500D0D03250574D204578616D706C652020B5
:100455002020200043686B2070696E2031353A50AA
:10046500312E3020003099FDC299F59922E4936030
:100475000612046AA380F622E4E53E12046AE4E566
:100485003F12046AE4E54012046AE4E54112046A95
:10049500E4E53812046A22303132333435363738E0
:1004A5003941424344454648656C6C6F2C20576F73
:1004B500726C64210D0A000D0A00C28CC28D758C08
:1004C500BF758A28D28C308DFD221204BFDAFB223B
:1004D500C0E0740114120107D0E0C083C082C0E0FF
:1004E50090004B1200FAD0E0D082D083C0E07407B0
:1004F50014120105D0E0C000A83B12010CD000C0C9
:10050500E0740914120105D0E0C000A83A12010CEC
:10051500D000C0E0740A14120105D0E0C000A83A6A
:1005250012010CD000C0E0740C14120105D0E0C01B
:1005350000A83912010CD000C0E0740A141201059C
:10054500D0E0C0E0742E1200BDD0E0C0E074071406
:10055500120105D0E0C0E074201200BDD0E0C0E07B
:10056500740F14120105D0E0C0E074DF1200BDD095
:10057500E0C0E0741014120105D0E0C0E07443122D
:1005850000BDD0E022C2EFD2EE30EFFDE5C2540F40
:10059500F8E5C3C4C0E0540FF9D0E054F048F822A0
:1005A50075817F1203A51200C7D201754700754BEF
:1005B50000C0E0740114120107D0E0900448120055
:1005C500FAC0E0740114120105D0E090045912003C
:1005D500FA754C1475380153E8F043E80012058AA2
:1005E5008842894353E8F043E80712058A88308931
:1005F50031753200753300753498753528753603B5
:100605007537001202AF854234854335753600755E
:10061500370012033C7534FE75352A753604753777
:100625000012021B1201351204D51201BE7AFA120C
:1006350004CF7AFA1204CF12047D020642E547B4CC
:10064500000F754C002084063084FD7547010205B6
:10065500DCB40113754C64754B007496C395465014
:10066500037547020205DCB40210754C14743CC3D3
:0D067500954B50037547030205DC0205DCC0
:00000001FF
