:100000000205C82A2A2A2A4C4F4144494E472A2A27
:100010002A2A2A0054454D503A2020202020200032
:1000200043454C43495553202052454144494E478E
:1000300000464152454E4845542052454144494EA0
:02004000470077
:10004200C000788500D8FDD00022C000C001792808
:100052007868D8FED9FADAF6D001D0002222D294FA
:10006200120042C29422A2E79283A2E69282A2E501
:100072009281A2E49280120060120042A2E3928373
:10008200A2E29282A2E19281A2E092801200602218
:10009200D293020068C293020068C294C0027A2816
:1000A20012004CD00274331200977433120097740A
:1000B200321200977428120097740C120097740180
:1000C200120097C0027A0212004CD00222E493601E
:1000D20006120092A380F62244404480020097C098
:1000E200E0E8C4540F4430120092E8540F44301236
:1000F2000092D0E022C0E0E8540160047431800232
:080102007430120092D0E022DB
:10010A00C0E0C0D0C000C001C002E4F539F53AF53C
:10011A003BF53CF53D7A20E533A2E779047830E6F1
:10012A0033F608D9FA79057839E636D4F608D9F9D2
:10013A00DAE5D002D001D000D0D0D0E022C0E0C0B1
:10014A00D0C000C001C002E4F539F53AF53BF53CF0
:10015A00F53D7A20E533A2E779047830E633F608EC
:10016A00D9FA79057839C0D0E6243320E70224D0B9
:10017A0020E30224FDD0D033F608D9EADAD6D00239
:10018A00D001D000D0D0D0E022C0E0C0D0C000C0A2
:10019A0001C0027A207905C3783DE613C0D030E762
:1001AA000224D030E30224FDF618D0D0D9EC790429
:1001BA007833E613F618D9FADADBD002D001D00088
:1001CA00D0D0D0E022C0E0C0D0E5302534F530E50B
:1001DA00313535F531E5323536F532E5333537F532
:1001EA0033D0D0D0E022C0E0C0D0C3E5309534F59A
:1001FA0030E5319535F531E5329536F532E5339509
:10020A0037F533D0D0D0E022C0E0C0D0C3E5309576
:10021A0034E5319535E5329536E53395379200D098
:10022A00D0D0E022C0E0C0D0C3E5349530E53595A2
:10023A0031E5369532E53795339200D0D0D0E022B9
:10024A00C0E0C0D0C200C3E53495307014E53595DE
:10025A0031700EE53695327008E53795337002D263
:10026A0000D0D0D0E02212024A20000302022E223D
:10027A0012024A20000302021222C0E0C0F0C0D0DB
:10028A00C000C001C002C003E5308534F0A4F8A95B
:10029A00F0E5318534F0A429F9E435F0FAE5308542
:1002AA0035F0A429F9E5F03AFAE433FBE53285346E
:1002BA00F0A42AFAE5F03BFBE5318535F0A42AFAE9
:1002CA00E5F03BFBE5308536F0A42AFAE5F03BFB86
:1002DA00E5338534F0A42BFBE5328535F0A42BFBFE
:1002EA00E5318536F0A42BFBE5308537F0A42BFBEE
:1002FA008B338A3289318830D003D002D001D000C2
:10030A00D0D0D0F0D0E022C0E0C0D0C000C001C040
:10031A0002C003C0047C20E4F8F9FAFBC3E53033D9
:10032A00F530E53133F531E53233F532E53333F57E
:10033A0033E833F8E933F9EA33FAEB33FBC3E895E8
:10034A0034E99535EA9536EB95374013E89534F854
:10035A00E99535F9EA9536FAEB9537FB433001DC36
:10036A00BBD004D003D002D001D000D0D0D0E0223C
:10037A0075AC0075AD0075B30075B40075B1007544
:10038A00B2007A05120446438E104387807598524C
:10039A0053C4DF53890F438920758DF7D28E2230DB
:1003AA0099FDC299F59922E49360061203A9A380E4
:1003BA00F622E4E5301203A9E4E5311203A9E4E5E3
:1003CA00321203A9E4E5331203A9E4E5381203A9BA
:1003DA002230313233343536373839414243444595
:1003EA004648656C6C6F2C20576F726C64210D0A3D
:1003FA00000D0A00438E1043878075985253C4DF5C
:10040A0053890F438920758DF7D28EC28C438E088B
:10041A005389F043890143B30253B4FD53E8F043CF
:10042A00E80775F60043F68043E10122C28CC28DCB
:10043A00758CBF758A28D28C308DFD22120436DA6B
:10044A00FB22C0E07401141200DCD0E0C083C08239
:10045A00C0E09000201200CFD0E0D082D083C0E06C
:10046A007407141200DAD0E0C000A83B1200E1D0F1
:10047A0000C0E07409141200DAD0E0C000A83A12F1
:10048A0000E1D000C0E0740A141200DAD0E0C00023
:10049A00A83A1200E1D000C0E0740C141200DAD0BD
:1004AA00E0C000A8391200E1D000C0E0740A1412BA
:1004BA0000DAD0E0C0E0742E120092D0E0C0E074FE
:1004CA0007141200DAD0E0C0E07420120092D0E0E3
:1004DA00C0E0740F141200DAD0E0C0E074DF12003A
:1004EA0092D0E0C0E07410141200DAD0E0C0E074D8
:1004FA0043120092D0E022C0E07401141200DCD052
:10050A00E0C083C082C0E09000311200CFD0E0D0BA
:10051A0082D083C0E07407141200DAD0E0C000A8C9
:10052A003B1200E1D000C0E07409141200DAD0E0F6
:10053A00C000A83A1200E1D000C0E0740A14120008
:10054A00DAD0E0C000A83A1200E1D000C0E0740C92
:10055A00141200DAD0E0C000A8391200E1D000C0BD
:10056A00E0740A141200DAD0E0C0E0742E1200928D
:10057A00D0E0C0E07407141200DAD0E0C0E0740FD3
:10058A00141200DAD0E0C0E074DF120092D0E0C0AA
:10059A00E07410141200DAD0E0C0E074461200923F
:1005AA00D0E022C2EFD2EE30EFFDE5C2540FF8E5FB
:1005BA00C3C4C0E0540FF9D0E054F048F822758162
:1005CA007F12037A1203FE12009CC0E07401141217
:1005DA0000DCD0E0C083C082C0E09000031200CFEC
:1005EA00D0E0D082D083C0E07401141200DAD0E0E7
:1005FA00C083C082C0E09000141200CFD0E0D08245
:10060A00D083D20175380120951CC0027A321200BB
:10061A004CD0022095103095FDB2012001057538A5
:10062A0002800375380153E8F043E8001205AD88EB
:10063A003E893F53E8F043E8071205AD2001030263
:10064A00068F883089317532007533007534987594
:10065A003528753603753700120284853E34853F86
:10066A00357536007537001203117534FE75352A53
:10067A007536047537001201F012010A12044C1281
:10068A0001930206FF88308931753200753300758F
:10069A003498753528753603753700120284853EFD
:1006AA0034853F357536007537001203117534FEEF
:1006BA0075352A7536047537001201F075340975D7
:1006CA0035007536007537001202847534057535A4
:1006DA000075360075370012031175340075357DC3
:1006EA007536007537001201CF12010A1205011280
:1006FA0001930206FF7AFA1204467AFA12044612A3
:05070A0003BC02061112
:00000001FF
