:030000000205E115
:10002B000204382A2A2A2A4C4F4144494E472A2A8D
:10003B002A2A2A0054454D503A2020202020200007
:10004B0043454C43495553202052454144494E4763
:10005B0000464152454E4845542052454144494E75
:10006B00470041424F525441424F525441424F522A
:03007B005420000E
:10007E00C000788500D8FDD00022C000C0017928CC
:10008E007868D8FED9FADAF6D001D0002222D294BE
:10009E0012007EC29422A2E79283A2E69282A2E589
:1000AE009281A2E4928012009C12007EA2E39283BF
:1000BE00A2E29282A2E19281A2E0928012009C22A0
:1000CE00D2930200A4C2930200A4C294C0027A2862
:1000DE00120088D00274331200D374331200D3741A
:1000EE00321200D374281200D3740C1200D3740190
:1000FE001200D3C0027A02120088D00222E493606A
:10010E00061200CEA380F622444044800200D3C0E3
:10011E00E0E8C4540F44301200CEE8540F443012BD
:10012E0000CED0E022C0E0E85401600474318002B9
:08013E0074301200CED0E02263
:10014600C0E0C0D0C000C001C002E4F539F53AF500
:100156003BF53CF53D7A20E533A2E779047830E6B5
:1001660033F608D9FA79057839E636D4F608D9F996
:10017600DAE5D002D001D000D0D0D0E022C0E0C075
:10018600D0C000C001C002E4F539F53AF53BF53CB4
:10019600F53D7A20E533A2E779047830E633F608B0
:1001A600D9FA79057839C0D0E6243320E70224D07D
:1001B60020E30224FDD0D033F608D9EADAD6D002FD
:1001C600D001D000D0D0D0E022C0E0C0D0C000C066
:1001D60001C0027A207905C3783DE613C0D030E726
:1001E6000224D030E30224FDF618D0D0D9EC7904ED
:1001F6007833E613F618D9FADADBD002D001D0004C
:10020600D0D0D0E022C0E0C0D0E5302534F530E5CE
:10021600313535F531E5323536F532E5333537F5F5
:1002260033D0D0D0E022C0E0C0D0C3E5309534F55D
:1002360030E5319535F531E5329536F532E53395CC
:1002460037F533D0D0D0E022C0E0C0D0C3E530953A
:1002560034E5319535E5329536E53395379200D05C
:10026600D0D0E022C0E0C0D0C3E5349530E5359566
:1002760031E5369532E53795339200D0D0D0E0227D
:10028600C0E0C0D0C200C3E53495307014E53595A2
:1002960031700EE53695327008E53795337002D227
:1002A60000D0D0D0E02212028620000302026A2289
:1002B60012028620000302024E22C0E0C0F0C0D027
:1002C600C000C001C002C003E5308534F0A4F8A91F
:1002D600F0E5318534F0A429F9E435F0FAE5308506
:1002E60035F0A429F9E5F03AFAE433FBE532853432
:1002F600F0A42AFAE5F03BFBE5318535F0A42AFAAD
:10030600E5F03BFBE5308536F0A42AFAE5F03BFB49
:10031600E5338534F0A42BFBE5328535F0A42BFBC1
:10032600E5318536F0A42BFBE5308537F0A42BFBB1
:100336008B338A3289318830D003D002D001D00085
:10034600D0D0D0F0D0E022C0E0C0D0C000C001C004
:1003560002C003C0047C20E4F8F9FAFBC3E530339D
:10036600F530E53133F531E53233F532E53333F542
:1003760033E833F8E933F9EA33FAEB33FBC3E895AC
:1003860034E99535EA9536EB95374013E89534F818
:10039600E99535F9EA9536FAEB9537FB433001DCFA
:1003A600BBD004D003D002D001D000D0D0D0E02200
:1003B60075AC0075AD0075B30075B40075B1007508
:1003C600B2007A0512050B438E104387807598524A
:1003D60053C4DF53890F438920758DF7D28E438E20
:1003E6001043878075985253C4DF53890F43892081
:1003F600758DF7D28EC28C438E085389F0438901DE
:1004060043B30253B4FD53E8F043E80775F60043DF
:10041600F68043E10175C80075CDD775CC7975C9ED
:10042600A075CBD775CA79755000439B80D2CAD2C6
:10043600AF22C2CFC0D0C0E00550C3E5539550B33C
:100446009290E550B464327550000552D202E54FE1
:10045600B4000302047FC3E54694F04006754F0AD4
:1004660002047FE546C39432500C0554E554C39408
:100476003C5006754F0A755400D0E0D0D032505724
:100486004D204578616D706C65202020202000434A
:10049600686B2070696E2031353A50312E3020005D
:1004A6003099FDC299F59922E49360061204A6A339
:1004B60080F622E4E5471204A6E4E5481204A6E421
:1004C600E5491204A6E4E54A1204A6E4E538120456
:1004D600A622303132333435363738394142434437
:1004E600454648656C6C6F2C20576F726C64210D05
:1004F6000A000D0A00C28CC28D758CBF758A28D27F
:100506008C308DFD221204FBDAFB22C0E07401144C
:10051600120118D0E0C083C082C0E090004B1201E7
:100526000BD0E0D082D083C0E0740714120116D03D
:10053600E0C000A83B12011DD000C0E074091412EF
:100546000116D0E0C000A83A12011DD000C0E07428
:100556000A14120116D0E0C000A83A12011DD000FC
:10056600C0E0740C14120116D0E0C000A8391201C4
:100576001DD000C0E0740A14120116D0E0C0E07469
:100586002E1200CED0E0C0E0740714120116D0E09F
:10059600C0E074201200CED0E0C0E0740F14120147
:1005A60016D0E0C0E074DF1200CED0E0C0E07410D8
:1005B60014120116D0E0C0E074431200CED0E0223F
:1005C600C2EFD2EE30EFFDE5C2540FF8E5C3C4C06A
:1005D600E0540FF9D0E054F048F82275817F1203F9
:1005E600B61200D8D201754F00755200C0E07401F2
:1005F60014120118D0E0C083C082C0E090002E1211
:10060600010BD0E0D082D083C0E074011412011631
:10061600D0E0C083C082C0E090003F12010BD0E062
:10062600D082D08375380153E8F043E8001205C63E
:100636008842894353E8F043E8011205C6883089A9
:100646003175320075330075349875352875360363
:100656007537001202C085423485433575360075FC
:10066600370012034D7534E8753503753600753756
:100676000085304B85314C85324D85334E53E8F03D
:1006860043E8051205C68830893175320075330096
:100696007534987535287536037537001202C0858E
:1006A600423485433575360075370012034D75346F
:1006B6000A7535007536007537001202C075346844
:1006C60075352A75360475370012022C854B34852C
:1006D6004C35854D36854E3712020B8530478531B0
:1006E6004885324985334A7534E8753503753600D1
:1006F60075370012034D8530461201461205111258
:1007060001CF7AFA12050B7AFA12050B1204B90216
:100716000718E54FB40011755300C2012084063056
:1007260084FD754F0102062DB4011375536475528D
:10073600007496C395465003754F0202062DB40207
:100746001B75531430010A743CC39552400B754F08
:1007560003755200D20102074402062DB403127536
:10076600536474DCC201C395465003754F040206F8
:100776002DB4041B75531430010A742DC3955240D1
:100786000B754F05755200D20102077702062DB48C
:100796000510755300743CC395464003754F00021F
:1007A600062D755300C0E0740114120118D0E0C084
:1007B60083C082C0E090006D12010BD0E0D082D0E1
:0407C600830207A8FB
:00000001FF
