<<<<<<< Updated upstream
:030000000205E115
:10002B000204382A2A2A2A4C4F4144494E472A2A8D
:10003B002A2A2A0054454D503A2020202020200007
:10004B0043454C43495553202052454144494E4763
:10005B0000464152454E4845542052454144494E75
:10006B00470041424F525441424F525441424F522A
:03007B005420000E
:10007E00C000788500D8FDD00022C000C0017928CC
:10008E007868D8FED9FADAF6D001D0002222D294BE
:10009E0012007EC29422A2E79283A2E69282A2E589
:1000AE009281A2E4928012009C12007EA2E39283BF
:1000BE00A2E29282A2E19281A2E0928012009C22A0
:1000CE00D2930200A4C2930200A4C294C0027A2862
:1000DE00120088D00274331200D374331200D3741A
:1000EE00321200D374281200D3740C1200D3740190
:1000FE001200D3C0027A02120088D00222E493606A
:10010E00061200CEA380F622444044800200D3C0E3
:10011E00E0E8C4540F44301200CEE8540F443012BD
:10012E0000CED0E022C0E0E85401600474318002B9
:08013E0074301200CED0E02263
:10014600C0E0C0D0C000C001C002E4F539F53AF500
:100156003BF53CF53D7A20E533A2E779047830E6B5
:1001660033F608D9FA79057839E636D4F608D9F996
:10017600DAE5D002D001D000D0D0D0E022C0E0C075
:10018600D0C000C001C002E4F539F53AF53BF53CB4
:10019600F53D7A20E533A2E779047830E633F608B0
:1001A600D9FA79057839C0D0E6243320E70224D07D
:1001B60020E30224FDD0D033F608D9EADAD6D002FD
:1001C600D001D000D0D0D0E022C0E0C0D0C000C066
:1001D60001C0027A207905C3783DE613C0D030E726
:1001E6000224D030E30224FDF618D0D0D9EC7904ED
:1001F6007833E613F618D9FADADBD002D001D0004C
:10020600D0D0D0E022C0E0C0D0E5302534F530E5CE
:10021600313535F531E5323536F532E5333537F5F5
:1002260033D0D0D0E022C0E0C0D0C3E5309534F55D
:1002360030E5319535F531E5329536F532E53395CC
:1002460037F533D0D0D0E022C0E0C0D0C3E530953A
:1002560034E5319535E5329536E53395379200D05C
:10026600D0D0E022C0E0C0D0C3E5349530E5359566
:1002760031E5369532E53795339200D0D0D0E0227D
:10028600C0E0C0D0C200C3E53495307014E53595A2
:1002960031700EE53695327008E53795337002D227
:1002A60000D0D0D0E02212028620000302026A2289
:1002B60012028620000302024E22C0E0C0F0C0D027
:1002C600C000C001C002C003E5308534F0A4F8A91F
:1002D600F0E5318534F0A429F9E435F0FAE5308506
:1002E60035F0A429F9E5F03AFAE433FBE532853432
:1002F600F0A42AFAE5F03BFBE5318535F0A42AFAAD
:10030600E5F03BFBE5308536F0A42AFAE5F03BFB49
:10031600E5338534F0A42BFBE5328535F0A42BFBC1
:10032600E5318536F0A42BFBE5308537F0A42BFBB1
:100336008B338A3289318830D003D002D001D00085
:10034600D0D0D0F0D0E022C0E0C0D0C000C001C004
:1003560002C003C0047C20E4F8F9FAFBC3E530339D
:10036600F530E53133F531E53233F532E53333F542
:1003760033E833F8E933F9EA33FAEB33FBC3E895AC
:1003860034E99535EA9536EB95374013E89534F818
:10039600E99535F9EA9536FAEB9537FB433001DCFA
:1003A600BBD004D003D002D001D000D0D0D0E02200
:1003B60075AC0075AD0075B30075B40075B1007508
:1003C600B2007A0512050B438E104387807598524A
:1003D60053C4DF53890F438920758DF7D28E438E20
:1003E6001043878075985253C4DF53890F43892081
:1003F600758DF7D28EC28C438E085389F0438901DE
:1004060043B30253B4FD53E8F043E80775F60043DF
:10041600F68043E10175C80075CDD775CC7975C9ED
:10042600A075CBD775CA79755000439B80D2CAD2C6
:10043600AF22C2CFC0D0C0E00550C3E5539550B33C
:100446009290E550B464327550000552D202E54FE1
:10045600B4000302047FC3E54694F04006754F0AD4
:1004660002047FE546C39432500C0554E554C39408
:100476003C5006754F0A755400D0E0D0D032505724
:100486004D204578616D706C65202020202000434A
:10049600686B2070696E2031353A50312E3020005D
:1004A6003099FDC299F59922E49360061204A6A339
:1004B60080F622E4E5471204A6E4E5481204A6E421
:1004C600E5491204A6E4E54A1204A6E4E538120456
:1004D600A622303132333435363738394142434437
:1004E600454648656C6C6F2C20576F726C64210D05
:1004F6000A000D0A00C28CC28D758CBF758A28D27F
:100506008C308DFD221204FBDAFB22C0E07401144C
:10051600120118D0E0C083C082C0E090004B1201E7
:100526000BD0E0D082D083C0E0740714120116D03D
:10053600E0C000A83B12011DD000C0E074091412EF
:100546000116D0E0C000A83A12011DD000C0E07428
:100556000A14120116D0E0C000A83A12011DD000FC
:10056600C0E0740C14120116D0E0C000A8391201C4
:100576001DD000C0E0740A14120116D0E0C0E07469
:100586002E1200CED0E0C0E0740714120116D0E09F
:10059600C0E074201200CED0E0C0E0740F14120147
:1005A60016D0E0C0E074DF1200CED0E0C0E07410D8
:1005B60014120116D0E0C0E074431200CED0E0223F
:1005C600C2EFD2EE30EFFDE5C2540FF8E5C3C4C06A
:1005D600E0540FF9D0E054F048F82275817F1203F9
:1005E600B61200D8D201754F0075520075550075C8
:1005F6005600755700C0E0740114120118D0E0C00F
:1006060083C082C0E090002E12010BD0E0D082D0D1
:1006160083C0E0740114120116D0E0C083C082C00A
:10062600E090003F12010BD0E0D082D083753801F4
:100636000206697530007531007532007533007D2C
:10064600641205C67537007536008935883412027E
:100656000BDDEE7534007535007536007537001202
:10066600034D2253E8F043E8001205C68842894349
:1006760053E8F043E8011205C68830893175320027
:10068600753300753498753528753603753700123D
:1006960002C085423485433575360075370012032E
:1006A6004D7534E875350375360075370085304B62
:1006B60085314C85324D85334E53E8F043E80512BB
:1006C60005C68830893175320075330075349875E2
:1006D60035287536037537001202C08542348543C6
:1006E6003575360075370012034D75340A753500B9
:1006F6007536007537001202C075346875352A756F
:10070600360475370012022C854B34854C35854DE1
:1007160036854E3785304785314885324985334A97
:100726007534E875350375360075370012034D8547
:1007360030461201461205111201CF7AFA12050B44
:100746007AFA12050B1204B9020751E54FB40011EB
:10075600755300C2012084063084FD754F010206E0
:1007660036B401137553647552007496C39546509A
:1007760003754F02020636B4021B75531430010A84
:10078600E557C39552400B754F03755200D20102CF
:10079600077D020636B40312755364E555C201C3DC
:1007A60095465003754F04020636B4041B75531460
:1007B60030010AE556C39552400B754F0575520038
:1007C600D2010207B0020636B40510755300743C18
:1007D600C395464003754F00020636755300C0E0C8
:1007E600740114120118D0E0C083C082C0E09000EA
:0D07F6006D12010BD0E0D082D0830207E12C
=======
:030000000239D3EF
:03002B0002381880
:1030000000000027004F0077009E00C600EE01156B
:10301000013D0165018D01B501DD0205022D02555D
:10302000027D02A502CE02F6031E0346036F03973C
:1030300003C003E8041104390462048B04B304DC04
:103040000505052E0556057F05A805D105FA0623B9
:10305000064C0675069E06C706F007190742076B61
:10306000079507BE07E70810083A0863088C08B6FA
:1030700008DF09080932095B098409AE09D70A018A
:103080000A2A0A540A7D0AA70AD00AFA0B230B4D12
:103090000B760BA00BC90BF30C1C0C460C700C9997
:1030A0000CC30CEC0D160D3F0D690D920DBC0DE51A
:1030B0000E0F0E380E620E8B0EB50EDE0F080F319E
:1030C0000F5B0F840FAD0FD71000102A1053107C28
:1030D00010A610CF10F81121114B1174119D11C6BB
:1030E00011EF12191242126B129412BD12E6130F55
:1030F00013381361138A13B313DC1404142D1456FC
:10310000147F14A814D014F91522154A1573159CB0
:1031100015C415ED1615163E1667168F16B716E070
:10312000170817311759178117AA17D217FA18233A
:10313000184B1873189B18C318EC1914193C196410
:10314000198C19B419DC1A041A2D1A551A7D1AA5EE
:103150001ACD1AF51B1D1B451B6D1B941BBC1BE4D4
:103160001C0C1C341C5C1C841CAC1CD41CFC1D24BE
:103170001D4C1D741D9B1DC31DEB1E131E3B1E63AA
:103180001E8B1EB31EDB1F031F2B1F531F7B1FA392
:103190001FCA1FF2201A2042206A209220BA20E281
:1031A000210A2133215B218321AB21D321FB22235F
:1031B000224B2273229C22C422EC2314233C23653D
:1031C000238D23B523DD2406242E2456247F24A713
:1031D00024CF24F8252025492571259A25C225EBE1
:1031E0002613263C2664268D26B526DE2707272FA4
:1031F0002758278127A927D227FB2824284C287560
:10320000289E28C728F029182941296A299329BC12
:1032100029E52A0E2A372A602A892AB22ADB2B04BA
:103220002B2D2B562B7F2BA82BD12BFB2C242C4D5D
:103230002C762C9F2CC92CF22D1B2D442D6E2D97F6
:103240002DC02DE92E132E3C2E652E8F2EB82EE18B
:103250002F0B2F342F5E2F872FB12FDA3003302D15
:0E3260003056308030A930D330FC312631504A
:10326E002A2A2A2A4C4F4144494E472A2A2A2A2AD8
:10327E000054454D503A2020202020200043454C3C
:10328E0043495553202052454144494E470046413B
:10329E0052454E4845542052454144494E470041FF
:1032AE00424F525441424F525441424F52542000C9
:1032BE00C000788500D8FDD00022C000C00179285A
:1032CE007868D8FED9FADAF6D001D00022D294125C
:1032DE0032BEC29422A2E79283A2E69282A2E59225
:1032EE0081A2E492801232DB1232BEA2E39283A25A
:1032FE00E29282A2E19281A2E092801232DB22D28D
:10330E00930232E3C2930232E3C294C0027A2812CD
:10331E0032C8D00274331233127433123312743231
:10332E001233127428123312740C123312740112E7
:10333E003312C0027A021232C8D00222E49360061F
:10334E0012330DA380F62244404480023312C0E0B3
:10335E00E8C4540F443012330DE8540F4430123386
:10336E000DD0E022C0E0E854016004743180027494
:07337E003012330DD0E022F4
:10338500C0E0C000C001903000A852A953E4E9B4E0
:10339500000302339F9032008000A3A3D8FCE4937E
:0E33A500F555A3E493F554D001D000D0E022FA
:1033B300C0E0C0D0C000C001C002E4F53CF53DF55B
:1033C3003EF53FF5407A20E533A2E779047830E60D
:1033D30033F608D9FA7905783CE636D4F608D9F9F4
:1033E300DAE5D002D001D000D0D0D0E022C0E0C0D6
:1033F300D0C000C001C002E4F53CF53DF53EF53F09
:10340300F5407A20E533A2E779047830E633F6080D
:10341300D9FA7905783CC0D0E6243320E70224D0DA
:1034230020E30224FDD0D033F608D9EADAD6D0025D
:10343300D001D000D0D0D0E022C0E0C0D0C000C0C6
:1034430001C0027A207905C37840E613C0D030E783
:103453000224D030E30224FDF618D0D0D9EC79044D
:103463007833E613F618D9FADADBD002D001D000AC
:10347300D0D0D0E022C0E0C0D0E5302534F530E52F
:10348300313535F531E5323536F532E5333537F556
:1034930033D0D0D0E022C0E0C0D0C3E5309534F5BE
:1034A30030E5319535F531E5329536F532E533952D
:1034B30037F533D0D0D0E022C0E0C0D0C3E530959B
:1034C30034E5319535E5329536E53395379200D0BD
:1034D300D0D0E022C0E0C0D0C3E5349530E53595C7
:1034E30031E5369532E53795339200D0D0D0E022DE
:1034F300C0E0C0D0C200C3E53495307014E5359503
:1035030031700EE53695327008E53795337002D287
:1035130000D0D0D0E0221234F32000030234D722AB
:103523001234F32000030234BB22C0E0C0F0C0D049
:10353300C000C001C002C003E5308534F0A4F8A97F
:10354300F0E5318534F0A429F9E435F0FAE5308566
:1035530035F0A429F9E5F03AFAE433FBE532853492
:10356300F0A42AFAE5F03BFBE5318535F0A42AFA0D
:10357300E5F03BFBE5308536F0A42AFAE5F03BFBAA
:10358300E5338534F0A42BFBE5328535F0A42BFB22
:10359300E5318536F0A42BFBE5308537F0A42BFB12
:1035A3008B338A3289318830D003D002D001D000E6
:1035B300D0D0D0F0D0E022C0E0C0D0C000C001C065
:1035C30002C003C0047C20E4F8F9FAFBC3E53033FE
:1035D300F530E53133F531E53233F532E53333F5A3
:1035E30033E833F8E933F9EA33FAEB33FBC3E8950D
:1035F30034E99535EA9536EB95374013E89534F879
:10360300E99535F9EA9536FAEB9537FB433001DC5A
:10361300BBD004D003D002D001D000D0D0D0E02260
:1036230068657820696E2056616C5F746573743ABF
:103633000043555252454E542056414C20494E208A
:103643005800C0E0C0D0C000C001C002E4F563F57B
:1036530064F565F5667A20E562A2E77904785FE6AA
:1036630033F608D9FA79057863E636D4F608D9F93A
:10367300DAE5123683D002D001D000D0D0D0E022D8
:10368300C0E0740114123357D0E0C083C082C0E09D
:1036930090362312334AD0E0D082D083C0E0740145
:1036A30014123355D0E0C000A86612335CD000C0BA
:1036B300E0740314123355D0E0C000A86512335CE4
:1036C300D000C0E0740514123355D0E0C000A864E4
:1036D30012335CD000C0E0740714123355D0E0C03D
:1036E30000A86312335CD00022C0E0C0D0C000C089
:1036F30001C002E4F563F564F565F5667A20E53308
:10370300A2E779047830E633F608D9FA79057863C5
:10371300E636D4F608D9F9DAE512372AD002D00111
:10372300D000D0D0D0E022C0E0740114123357D0BF
:10373300E0C083C082C0E090363412334AD0E0D078
:1037430082D083C0E0740114123355D0E0C000A8C6
:103753006612335CD000C0E0740314123355D0E01A
:10376300C000A86512335CD000C0E07405141233A6
:1037730055D0E0C000A86412335CD000C0E07407E9
:1037830014123355D0E0C000A86312335CD000227A
:1037930075AC0075AD0075B30075B40075B10075F7
:1037A300B2007A051238FD438E1043878075985214
:1037B30053C4DF53890F438920758DF7D28E438E0F
:1037C3001043878075985253C4DF53890F43892070
:1037D300758DF7D28EC28C438E085389F0438901CD
:1037E30043B30253B4FD53E8F043E80775F60043CF
:1037F300F64043E10175520075C80075CDD775CC0D
:103803007975C9A075CBD775CA79755700439B8065
:10381300D2CAD2AF22C2CFC0D0C0E00557C3E55A47
:103823009557B39290E557B464327557000559D252
:1038330002E556B4000302385FC3E54594F0400641
:1038430075560A02385FE545C39432500C055BE5B3
:103853005BC3943C500675560A755B00D0E0D0D02C
:103863003250574D204578616D706C6520202020C3
:10387300200043686B2070696E2031353A50312E39
:103883003020003099FDC299F59922E49360061225
:103893003886A380F622E4E546123886E4E547122B
:1038A3003886E4E548123886E4E549123886E4E5CB
:1038B30038123886E4E539123886E4E53A12388658
:1038C300E4E53B123886223031323334353637382B
:1038D3003941424344454648656C6C6F2C20576F11
:1038E300726C64210D0A000D0A00C28CC28D758CA6
:1038F300BF758A28D28C308DFD221238EDDAFB2277
:10390300C0E0740114123357D0E0C083C082C0E01A
:1039130090328B12334AD0E0D082D083C0E0740758
:1039230014123355D0E0C000A83E12335CD000C05F
:10393300E0740914123355D0E0C000A83D12335C83
:10394300D000C0E0740A14123355D0E0C000A83D83
:1039530012335CD000C0E0740C14123355D0E0C0B5
:1039630000A83C12335CD000C0E0740A1412335533
:10397300D0E0C0E0742E12330DD0E0C0E074071421
:10398300123355D0E0C0E0742012330DD0E0C0E014
:10399300740F14123355D0E0C0E074DF12330DD02E
:1039A300E0C0E0741014123355D0E0C0E074431249
:1039B300330DD0E022C2EFD2EE30EFFDE5C2540F5B
:1039C300F8E5C3C4C0E0540FF9D0E054F048F8223E
:1039D30075817F123793123317D2017556007559CB
:1039E30000755C00755D00755E00C0E07401141223
:1039F3003357D0E0C083C082C0E090326E12334AA6
:103A0300D0E0D082D083C0E0740114123355D0E0EB
:103A1300C083C082C0E090327F12334AD0E0D082AC
:103A2300D083023A58753000753100753200753312
:103A3300007DFF1239B87537007536008935883433
:103A4300123478DDEE7534FF753500753600753741
:103A5300001235BA2253E8F043E800123A288841AD
:103A6300894253E8F043E805123A288830893175D2
:103A730032007533007534A07535F7753603753725
:103A83000012352D85413485423575360075370072
:103A93001235BA75346875352A75360475370012D0
:103AA300349985304E85314F85325085335153E8F3
:103AB300F043E807123A28883089317532007533AC
:103AC3000075342875350A75360075370012352DA3
:103AD3008541348542357536007537001235BA7520
:103AE30034E875350375360075370012352D753496
:103AF3001B7535047536007537001235BA7534E811
:103B030075350375360075370012352D854E3485AE
:103B13004F35855036855137123478853046853197
:103B23004785324885334985463885473985483A3C
:103B330085493B1236EC85463085473185483285C9
:103B430049337534E875350375360075370012351A
:103B5300BA8530457AFA1238FD7AFA1238FD1238EE
:103B630099023B67E556B40011755A00C2012084DF
:103B7300063084FD755601023A25B40113755A6463
:103B83007559007496C395455003755602023A253C
:103B9300B4021B755A1430010AE55EC39559400BF4
:103BA300755603755900D201023B93023A25B403BB
:103BB30012755A64E55CC201C395455003755604FA
:103BC300023A25B4041B755A1430010AE55DC39506
:103BD30059400B755605755900D201023BC6023A8E
:103BE30025B40510755A00743CC3954540037556BA
:103BF30000023A25755A00C0E0740114123357D0FD
:103C0300E0C083C082C0E09032AD12334AD0E0D02E
:063C130082D083023BF7A2
>>>>>>> Stashed changes
:00000001FF
