:030000000239E4DE
:03002B000238296F
:1030000000000027004F0077009E00C600EE01156B
:10301000013D0165018D01B501DD0205022D02555D
:10302000027D02A502CE02F6031E0346036F03973C
:1030300003C003E8041104390462048B04B304DC04
:103040000505052E0556057F05A805D105FA0623B9
:10305000064C0675069E06C706F007190742076B61
:10306000079507BE07E70810083A0863088C08B6FA
:1030700008DF09080932095B098409AE09D70A018A
:103080000A2A0A540A7D0AA70AD00AFA0B230B4D12
:103090000B760BA00BC90BF30C1C0C460C700C9997
:1030A0000CC30CEC0D160D3F0D690D920DBC0DE51A
:1030B0000E0F0E380E620E8B0EB50EDE0F080F319E
:1030C0000F5B0F840FAD0FD71000102A1053107C28
:1030D00010A610CF10F81121114B1174119D11C6BB
:1030E00011EF12191242126B129412BD12E6130F55
:1030F00013381361138A13B313DC1404142D1456FC
:10310000147F14A814D014F91522154A1573159CB0
:1031100015C415ED1615163E1667168F16B716E070
:10312000170817311759178117AA17D217FA18233A
:10313000184B1873189B18C318EC1914193C196410
:10314000198C19B419DC1A041A2D1A551A7D1AA5EE
:103150001ACD1AF51B1D1B451B6D1B941BBC1BE4D4
:103160001C0C1C341C5C1C841CAC1CD41CFC1D24BE
:103170001D4C1D741D9B1DC31DEB1E131E3B1E63AA
:103180001E8B1EB31EDB1F031F2B1F531F7B1FA392
:103190001FCA1FF2201A2042206A209220BA20E281
:1031A000210A2133215B218321AB21D321FB22235F
:1031B000224B2273229C22C422EC2314233C23653D
:1031C000238D23B523DD2406242E2456247F24A713
:1031D00024CF24F8252025492571259A25C225EBE1
:1031E0002613263C2664268D26B526DE2707272FA4
:1031F0002758278127A927D227FB2824284C287560
:10320000289E28C728F029182941296A299329BC12
:1032100029E52A0E2A372A602A892AB22ADB2B04BA
:103220002B2D2B562B7F2BA82BD12BFB2C242C4D5D
:103230002C762C9F2CC92CF22D1B2D442D6E2D97F6
:103240002DC02DE92E132E3C2E652E8F2EB82EE18B
:103250002F0B2F342F5E2F872FB12FDA3003302D15
:0E3260003056308030A930D330FC312631504A
:10326E002A2A2A2A4C4F4144494E472A2A2A2A2AD8
:10327E000054454D503A2020202020200043454C3C
:10328E0043495553202052454144494E470046413B
:10329E0052454E4845542052454144494E470041FF
:1032AE00424F525441424F525441424F52542000C9
:1032BE0043757272656E742053746174653A202082
:0132CE0000FF
:1032CF00C000788500D8FDD00022C000C001792849
:1032DF007868D8FED9FADAF6D001D00022D294124B
:1032EF0032CFC29422A2E79283A2E69282A2E59203
:1032FF0081A2E492801232EC1232CFA2E39283A227
:10330F00E29282A2E19281A2E092801232EC22D26A
:10331F00930232F4C2930232F4C294C0027A28129A
:10332F0032D9D002743312332374331233237432ED
:10333F001233237428123323740C123323740112A3
:10334F003323C0027A021232D9D00222E4936006EC
:10335F0012331EA380F62244404480023323C0E080
:10336F00E8C4540F443012331EE8540F4430123364
:10337F001ED0E022C0E0E854016004743180027472
:07338F003012331ED0E022D2
:10339600C0E0C000C001903000A852A953E4E9B4CF
:1033A60000030233B09032008000A3A3D8FCE4935C
:0E33B600F555A3E493F554D001D000D0E022E9
:1033C400C0E0C0D0C000C001C002E4F53CF53DF54A
:1033D4003EF53FF5407A20E533A2E779047830E6FC
:1033E40033F608D9FA7905783CE636D4F608D9F9E3
:1033F400DAE5D002D001D000D0D0D0E022C0E0C0C5
:10340400D0C000C001C002E4F53CF53DF53EF53FF7
:10341400F5407A20E533A2E779047830E633F608FC
:10342400D9FA7905783CC0D0E6243320E70224D0C9
:1034340020E30224FDD0D033F608D9EADAD6D0024C
:10344400D001D000D0D0D0E022C0E0C0D0C000C0B5
:1034540001C0027A207905C37840E613C0D030E772
:103464000224D030E30224FDF618D0D0D9EC79043C
:103474007833E613F618D9FADADBD002D001D0009B
:10348400D0D0D0E022C0E0C0D0E5302534F530E51E
:10349400313535F531E5323536F532E5333537F545
:1034A40033D0D0D0E022C0E0C0D0C3E5309534F5AD
:1034B40030E5319535F531E5329536F532E533951C
:1034C40037F533D0D0D0E022C0E0C0D0C3E530958A
:1034D40034E5319535E5329536E53395379200D0AC
:1034E400D0D0E022C0E0C0D0C3E5349530E53595B6
:1034F40031E5369532E53795339200D0D0D0E022CD
:10350400C0E0C0D0C200C3E53495307014E53595F1
:1035140031700EE53695327008E53795337002D276
:1035240000D0D0D0E0221235042000030234E82277
:103534001235042000030234CC22C0E0C0F0C0D015
:10354400C000C001C002C003E5308534F0A4F8A96E
:10355400F0E5318534F0A429F9E435F0FAE5308555
:1035640035F0A429F9E5F03AFAE433FBE532853481
:10357400F0A42AFAE5F03BFBE5318535F0A42AFAFC
:10358400E5F03BFBE5308536F0A42AFAE5F03BFB99
:10359400E5338534F0A42BFBE5328535F0A42BFB11
:1035A400E5318536F0A42BFBE5308537F0A42BFB01
:1035B4008B338A3289318830D003D002D001D000D5
:1035C400D0D0D0F0D0E022C0E0C0D0C000C001C054
:1035D40002C003C0047C20E4F8F9FAFBC3E53033ED
:1035E400F530E53133F531E53233F532E53333F592
:1035F40033E833F8E933F9EA33FAEB33FBC3E895FC
:1036040034E99535EA9536EB95374013E89534F867
:10361400E99535F9EA9536FAEB9537FB433001DC49
:10362400BBD004D003D002D001D000D0D0D0E0224F
:1036340068657820696E2056616C5F746573743AAE
:103644000043555252454E542056414C20494E2079
:103654005800C0E0C0D0C000C001C002E4F563F56A
:1036640064F565F5667A20E562A2E77904785FE699
:1036740033F608D9FA79057863E636D4F608D9F929
:10368400DAE5123694D002D001D000D0D0D0E022B6
:10369400C0E0740114123368D0E0C083C082C0E07B
:1036A40090363412335BD0E0D082D083C0E0740112
:1036B40014123366D0E0C000A86612336DD000C087
:1036C400E0740314123366D0E0C000A86512336DB1
:1036D400D000C0E0740514123366D0E0C000A864C2
:1036E40012336DD000C0E0740714123366D0E0C00A
:1036F40000A86312336DD00022C0E0C0D0C000C067
:1037040001C002E4F563F564F565F5667A20E533F6
:10371400A2E779047830E633F608D9FA79057863B4
:10372400E636D4F608D9F9DAE512373BD002D001EF
:10373400D000D0D0D0E022C0E0740114123368D09D
:10374400E0C083C082C0E090364512335BD0E0D045
:1037540082D083C0E0740114123366D0E0C000A8A4
:103764006612336DD000C0E0740314123366D0E0E7
:10377400C000A86512336DD000C0E0740514123384
:1037840066D0E0C000A86412336DD000C0E07407B6
:1037940014123366D0E0C000A86312336DD0002247
:1037A40075AC0075AD0075B30075B40075B10075E6
:1037B400B2007A0512390E438E10438780759852F1
:1037C40053C4DF53890F438920758DF7D28E438EFE
:1037D4001043878075985253C4DF53890F4389205F
:1037E400758DF7D28EC28C438E085389F0438901BC
:1037F40043B30253B4FD53E8F043E80775F60043BE
:10380400F64043E10175520075C80075CDD775CCFB
:103814007975C9A075CBD775CA79755700439B8054
:10382400D2CAD2AF22C2CFC0D0C0E00557C3E55A36
:103834009557B39290E557B464327557000559D241
:1038440002E556B40003023870C3E54594F040061F
:1038540075560A023870E545C39432500C055BE591
:103864005BC3943C500675560A755B00D0E0D0D01B
:103874003250574D204578616D706C6520202020B2
:10388400200043686B2070696E2031353A50312E28
:103894003020003099FDC299F59922E49360061214
:1038A4003897A380F622E4E546123897E4E54712F8
:1038B4003897E4E548123897E4E549123897E4E587
:1038C40038123897E4E539123897E4E53A12389714
:1038D400E4E53B1238972230313233343536373809
:1038E4003941424344454648656C6C6F2C20576F00
:1038F400726C64210D0A000D0A00C28CC28D758C95
:10390400BF758A28D28C308DFD221238FEDAFB2254
:10391400C0E0740114123368D0E0C083C082C0E0F8
:1039240090328B12335BD0E0D082D083C0E0740736
:1039340014123366D0E0C000A83E12336DD000C02C
:10394400E0740914123366D0E0C000A83D12336D50
:10395400D000C0E0740A14123366D0E0C000A83D61
:1039640012336DD000C0E0740C14123366D0E0C082
:1039740000A83C12336DD000C0E0740A1412336600
:10398400D0E0C0E0742E12331ED0E0C0E0740714FF
:10399400123366D0E0C0E0742012331ED0E0C0E0E1
:1039A400740F14123366D0E0C0E074DF12331ED0FB
:1039B400E0C0E0741014123366D0E0C0E074431227
:1039C400331ED0E022C2EFD2EE30EFFDE5C2540F39
:1039D400F8E5C3C4C0E0540FF9D0E054F048F8222D
:1039E40075817F1237A4123328D201755600755998
:1039F40000755C00755D00755E00C0E07401141212
:103A04003368D0E0C083C082C0E090326E12335B72
:103A1400D0E0D082D083C0E0740114123366D0E0C9
:103A2400C083C082C0E090327F12335BD0E0D0828A
:103A3400D083023A697530007531007532007533F0
:103A4400007DFF1239C97537007536008935883411
:103A5400123489DDEE7534FF75350075360075371F
:103A6400001235CB2253E8F043E800123A3988417A
:103A7400894253E8F043E805123A398830893175B0
:103A840032007533007534A07535F7753603753714
:103A94000012353E85413485423575360075370050
:103AA4001235CB75346875352A75360475370012AE
:103AB40034AA85304E85314F85325085335153E8D1
:103AC400F043E807123A398830893175320075338A
:103AD4000088388939753A00753B00753428753586
:103AE4000A75360075370012353E854134854235F6
:103AF4007536007537001235CB7534E875350375A6
:103B0400360075370012353E75341B75350475362D
:103B1400007537001235CB853046853147853248EC
:103B24008533491236FD85463085473185483285CF
:103B340049337534E8753503753600753700123529
:103B4400CB8530457AFA12390E7AFA12390E1238C8
:103B5400AA023B58E556C0E0740114123368D0E061
:103B6400C083C082C0E09032BE12335BD0E0D0820A
:103B7400D083B40024755A00C0E0740E1412336864
:103B8400D0E0C000780012336DD000C2012084065A
:103B94003084FD755601023A36B40126755A64C064
:103BA400E0740E14123368D0E0C000780112336D53
:103BB400D0007559007496C395455003755602029A
:103BC4003A36B4022E755A14C0E0740E14123368D7
:103BD400D0E0C000780212336DD00030010AE55EF7
:103BE400C39559400B755603755900D201023BC663
:103BF400023A36B40325755A64C0E0740E141233C5
:103C040068D0E0C000780312336DD000E55CC201D7
:103C1400C395455003755604023A36B4042E755ABA
:103C240014C0E0740E14123368D0E0C0007804129B
:103C3400336DD00030010AE55DC39559400B7556CC
:103C440005755900D201023C1F023A36B4052375AA
:103C54005A00C0E0740E14123368D0E0C000780437
:103C640012336DD000743CC3954540037556000271
:103C74003A36755A00C0E0740114123368D0E0C0BB
:103C840083C082C0E09032AD12335BD0E0D082D0EA
:043C940083023C76F5
:00000001FF
