:03000000023A9829
:03002B0002383F59
:1030000000000027004F0077009E00C600EE01156B
:10301000013D0165018D01B501DD0205022D02555D
:10302000027D02A502CE02F6031E0346036F03973C
:1030300003C003E8041104390462048B04B304DC04
:103040000505052E0556057F05A805D105FA0623B9
:10305000064C0675069E06C706F007190742076B61
:10306000079507BE07E70810083A0863088C08B6FA
:1030700008DF09080932095B098409AE09D70A018A
:103080000A2A0A540A7D0AA70AD00AFA0B230B4D12
:103090000B760BA00BC90BF30C1C0C460C700C9997
:1030A0000CC30CEC0D160D3F0D690D920DBC0DE51A
:1030B0000E0F0E380E620E8B0EB50EDE0F080F319E
:1030C0000F5B0F840FAD0FD71000102A1053107C28
:1030D00010A610CF10F81121114B1174119D11C6BB
:1030E00011EF12191242126B129412BD12E6130F55
:1030F00013381361138A13B313DC1404142D1456FC
:10310000147F14A814D014F91522154A1573159CB0
:1031100015C415ED1615163E1667168F16B716E070
:10312000170817311759178117AA17D217FA18233A
:10313000184B1873189B18C318EC1914193C196410
:10314000198C19B419DC1A041A2D1A551A7D1AA5EE
:103150001ACD1AF51B1D1B451B6D1B941BBC1BE4D4
:103160001C0C1C341C5C1C841CAC1CD41CFC1D24BE
:103170001D4C1D741D9B1DC31DEB1E131E3B1E63AA
:103180001E8B1EB31EDB1F031F2B1F531F7B1FA392
:103190001FCA1FF2201A2042206A209220BA20E281
:1031A000210A2133215B218321AB21D321FB22235F
:1031B000224B2273229C22C422EC2314233C23653D
:1031C000238D23B523DD2406242E2456247F24A713
:1031D00024CF24F8252025492571259A25C225EBE1
:1031E0002613263C2664268D26B526DE2707272FA4
:1031F0002758278127A927D227FB2824284C287560
:10320000289E28C728F029182941296A299329BC12
:1032100029E52A0E2A372A602A892AB22ADB2B04BA
:103220002B2D2B562B7F2BA82BD12BFB2C242C4D5D
:103230002C762C9F2CC92CF22D1B2D442D6E2D97F6
:103240002DC02DE92E132E3C2E652E8F2EB82EE18B
:103250002F0B2F342F5E2F872FB12FDA3003302D15
:0E3260003056308030A930D330FC312631504A
:10326E002A2A2A2A4C4F4144494E472A2A2A2A2AD8
:10327E000054454D503A2020202020202020202090
:10328E0020004F56454E2054454D503A20202020C8
:10329E00202000464152454E484554205245414457
:1032AE00494E470041424F525441424F52544142BF
:1032BE004F5254200043757272656E7420537461C0
:1032CE0074653A2020005374617465204572726FE4
:0732DE0072202020202000D7
:1032E500C000788500D8FDD00022C000C001792833
:1032F5007868D8FED9FADAF6D001D00022D2941235
:1033050032E5C29422A2E79283A2E69282A2E592D6
:1033150081A2E492801233021232E5A2E39283A2E3
:10332500E29282A2E19281A2E0928012330222D23D
:103335009302330AC29302330AC294C0027A281256
:1033450032EFD00274331233397433123339743295
:103355001233397428123339740C1233397401124B
:103365003339C0027A021232EFD00222E4936006AA
:10337500123334A380F62244404480023339C0E03E
:10338500E8C4540F4430123334E8540F4430123338
:1033950034D0E022C0E0E854016004743180027446
:0733A50030123334D0E022A6
:1033AC00C0E0C000C001903000A852A953E4E9B4B9
:1033BC0000030233C69032008000A3A3D8FCE49330
:0E33CC00F555A3E493F554D001D000D0E022D3
:1033DA00C0E0C0D0C000C001C002E4F53CF53DF534
:1033EA003EF53FF5407A20E533A2E779047830E6E6
:1033FA0033F608D9FA7905783CE636D4F608D9F9CD
:10340A00DAE5D002D001D000D0D0D0E022C0E0C0AE
:10341A00D0C000C001C002E4F53CF53DF53EF53FE1
:10342A00F5407A20E533A2E779047830E633F608E6
:10343A00D9FA7905783CC0D0E6243320E70224D0B3
:10344A0020E30224FDD0D033F608D9EADAD6D00236
:10345A00D001D000D0D0D0E022C0E0C0D0C000C09F
:10346A0001C0027A207905C37840E613C0D030E75C
:10347A000224D030E30224FDF618D0D0D9EC790426
:10348A007833E613F618D9FADADBD002D001D00085
:10349A00D0D0D0E022C0E0C0D0E5302534F530E508
:1034AA00313535F531E5323536F532E5333537F52F
:1034BA0033D0D0D0E022C0E0C0D0C3E5309534F597
:1034CA0030E5319535F531E5329536F532E5339506
:1034DA0037F533D0D0D0E022C0E0C0D0C3E5309574
:1034EA0034E5319535E5329536E53395379200D096
:1034FA00D0D0E022C0E0C0D0C3E5349530E53595A0
:10350A0031E5369532E53795339200D0D0D0E022B6
:10351A00C0E0C0D0C200C3E53495307014E53595DB
:10352A0031700EE53695327008E53795337002D260
:10353A0000D0D0D0E02212351A2000030234FE2235
:10354A0012351A2000030234E222C0E0C0F0C0D0D3
:10355A00C000C001C002C003E5308534F0A4F8A958
:10356A00F0E5318534F0A429F9E435F0FAE530853F
:10357A0035F0A429F9E5F03AFAE433FBE53285346B
:10358A00F0A42AFAE5F03BFBE5318535F0A42AFAE6
:10359A00E5F03BFBE5308536F0A42AFAE5F03BFB83
:1035AA00E5338534F0A42BFBE5328535F0A42BFBFB
:1035BA00E5318536F0A42BFBE5308537F0A42BFBEB
:1035CA008B338A3289318830D003D002D001D000BF
:1035DA00D0D0D0F0D0E022C0E0C0D0C000C001C03E
:1035EA0002C003C0047C20E4F8F9FAFBC3E53033D7
:1035FA00F530E53133F531E53233F532E53333F57C
:10360A0033E833F8E933F9EA33FAEB33FBC3E895E5
:10361A0034E99535EA9536EB95374013E89534F851
:10362A00E99535F9EA9536FAEB9537FB433001DC33
:10363A00BBD004D003D002D001D000D0D0D0E02239
:10364A0068657820696E2056616C5F746573743A98
:10365A000043555252454E542056414C20494E2063
:10366A005800C0E0C0D0C000C001C002E4F563F554
:10367A0064F565F5667A20E562A2E77904785FE683
:10368A0033F608D9FA79057863E636D4F608D9F913
:10369A00DAE51236AAD002D001D000D0D0D0E0228A
:1036AA00C0E074011412337ED0E0C083C082C0E04F
:1036BA0090364A123371D0E0D082D083C0E07401D0
:1036CA001412337CD0E0C000A866123383D000C045
:1036DA00E074031412337CD0E0C000A8651233836F
:1036EA00D000C0E074051412337CD0E0C000A86496
:1036FA00123383D000C0E074071412337CD0E0C0C8
:10370A0000A863123383D00022C0E0C0D0C000C03A
:10371A0001C002E4F563F564F565F5667A20E533E0
:10372A00A2E779047830E633F608D9FA790578639E
:10373A00E636D4F608D9F9DAE5123751D002D001C3
:10374A00D000D0D0D0E022C0E074011412337ED071
:10375A00E0C083C082C0E090365B123371D0E0D003
:10376A0082D083C0E074011412337CD0E0C000A878
:10377A0066123383D000C0E074031412337CD0E0A5
:10378A00C000A865123383D000C0E0740514123358
:10379A007CD0E0C000A864123383D000C0E0740774
:1037AA001412337CD0E0C000A863123383D0002205
:1037BA0075AC0075AD0075B30075B40075B10075D0
:1037CA00B2007A05123927438E10438780759852C2
:1037DA0053C4DF53890F438920758DF7D28E438EE8
:1037EA001043878075985253C4DF53890F43892049
:1037FA00758DF7D28EC28C438E085389F0438901A6
:10380A0043B30253B4FD53E8F043E80775F60043A7
:10381A00F64043E10175520075C80075CDD775CCE5
:10382A007975C9A075CBD775CA79755700439B803E
:10383A00D2CAD2AF22C2CFC0D0C0E00557C3E55A20
:10384A009557B39290E557B464357557000559D228
:10385A0002E556B40003023889C3E54594F04006F0
:10386A0075560A023889E545C39432500F055BE55F
:10387A005BC3943C400975560A023889755B00D0CF
:10388A00E0D0D03250574D204578616D706C65207C
:10389A00202020200043686B2070696E2031353A61
:1038AA0050312E3020003099FDC299F59922E493C7
:1038BA0060061238B0A380F622E4E5461238B0E476
:1038CA00E5471238B0E4E5481238B0E4E549123861
:1038DA00B0E4E5381238B0E4E5391238B0E4E53A34
:1038EA001238B0E4E53B1238B02230313233343585
:1038FA003637383941424344454648656C6C6F2C2B
:10390A0020576F726C64210D0A000D0A00C28CC226
:10391A008D758CBF758A28D28C308DFD221239178D
:10392A00DAFB22C0E074011412337ED0E0C083C0F7
:10393A0082C0E0903290123371D0E0D082D083C03E
:10394A00E074071412337CD0E0C000A83E1233831F
:10395A00D000C0E074091412337CD0E0C000A83D46
:10396A00123383D000C0E0740A1412337CD0E0C052
:10397A0000A83D123383D000C0E0740C1412337CCB
:10398A00D0E0C000A83C123383D000C0E0740A140F
:10399A0012337CD0E0C0E0742E123334D0E0C0E0A1
:1039AA0074071412337CD0E0C0E07420123334D090
:1039BA00E0C0E0740F1412337CD0E0C0E074DF1270
:1039CA003334D0E0C0E074101412337CD0E0C0E08D
:1039DA007443123334D0E022C0E0E53DB400030260
:1039EA003A41C0E074011412337CD0E0C083C08233
:1039FA00C0E0903290123371D0E0D082D083C0E020
:103A0A00740B1412337CD0E0C000A83D123383D06B
:103A1A0000C0E0740B1412337CD0E0C0E0742012B2
:103A2A003334D0E0C0E0740D1412337CD0E0C0000F
:103A3A00A83C123383D000C0E0740C1412337CD03B
:103A4A00E0C0E07420123334D0E0C0E0740F1412E6
:103A5A00337CD0E0C0E074DF123334D0E0C0E074CD
:103A6A00101412337CD0E0C0E07443123334D0E037
:103A7A00D0E022C2EFD2EE30EFFDE5C2540FF8E5F6
:103A8A00C3C4C0E0540FF9D0E054F048F82275815D
:103A9A007F1237BA12333ED2017556007559007536
:103AAA005CDC755D1E755E3C755B00C0E0740114DC
:103ABA0012337ED0E0C083C082C0E090326E1233EF
:103ACA0071D0E0D082D083C0E074011412337CD06C
:103ADA00E0C083C082C0E090327F123371D0E0D060
:103AEA0082D083023B207530007531007532007533
:103AFA0033007DFF123A7D753700753600893588A7
:103B0A003412349FDDEE7534FF7535007536007555
:103B1A0037001235E12253E8F043E800123AF08800
:103B2A0041894253E8F043E805123AF08830893176
:103B3A007532007533007534A07535F7753603751F
:103B4A00370012355485413485423575360075374C
:103B5A00001235E175346875352A753604753700F3
:103B6A001234C085304E85314F85325085335153DA
:103B7A00E8F043E807123AF0883089317532007567
:103B8A00330075342875350A7536007537001235D5
:103B9A00548541348542357536007537001235E152
:103BAA007534E87535037536007537001235547566
:103BBA00341B7535047536007537001235E17534D6
:103BCA00E8753503753600753700123554854E345D
:103BDA00854F3585503685513712349F8530468555
:103BEA00314785324885334985463085473185488E
:103BFA00328549337534E8753503753600753700F3
:103C0A001235E18530451233DA1239E27AFA12397D
:103C1A00277AFA1239271238C3023C26E556C0E041
:103C2A0074011412337ED0E0C083C082C0E09032A7
:103C3A00C3123371D0E0D082D083C0E0740C141266
:103C4A00337CD0E085455F75600075610075620060
:103C5A0012366CB4002A755601023C87755A00C0A8
:103C6A00E0740F1412337ED0E0C000780012338360
:103C7A00D000C2012084063084FD755601023AED57
:103C8A00B40126755A64C0E0740F1412337ED0E072
:103C9A00C0007801123383D0007559007496C39519
:103CAA00455003755602023AEDB4022E755A14C0F5
:103CBA00E0740F1412337ED0E0C00078021233830E
:103CCA00D00030010AE55EC39559400B755603755D
:103CDA005900D201023CB3023AEDB40325755A6485
:103CEA00C0E0740F1412337ED0E0C00078031233A0
:103CFA0083D000E55CC201C39545500375560402A2
:103D0A003AEDB4042E755A14C0E0740F1412337EBF
:103D1A00D0E0C0007804123383D00030010AE55D98
:103D2A00C39559400B755605755900D201023D0CD1
:103D3A00023AEDB40523755A00C0E0740F14123329
:103D4A007ED0E0C0007804123383D000743CC3955F
:103D5A00454003755600023AEDB40A22755A00C06E
:103D6A00E074011412337ED0E0C083C082C0E090B8
:103D7A0032B2123371D0E0D082D083023D63755AD9
:103D8A0000C0E074011412337ED0E0C083C082C048
:103D9A00E09032D4123371D0E0D082D083023D88D1
:00000001FF
